:020000040000fa
:080000000002040000000000f2
:020000040000fa
:0400080026030000cb
:020000040000fa
:04000c006803000085
:020000040000fa
:04001000c803000021
:020000040000fa
:04001400460300009f
:020000040000fa
:040018008803000059
:020000040000fa
:04001c00a803000035
:020000040000fa
:04002000e8030000f1
:020000040000fa
:04002400cc05000007
:020000040000fa
:04002800cc05000003
:020000040000fa
:04002c00cc050000ff
:020000040000fa
:04003000cc050000fb
:020000040000fa
:040034003404000090
:020000040000fa
:04003800d2040000ee
:020000040000fa
:04003c00cc050000ef
:020000040000fa
:04004000cc050000eb
:020000040000fa
:04004400cc050000e7
:020000040000fa
:040048009c05000013
:020000040000fa
:04004c00cc050000df
:020000040000fa
:04005000cc050000db
:020000040000fa
:04005400cc050000d7
:020000040000fa
:04005800cc050000d3
:020000040000fa
:04005c006404000038
:020000040000fa
:04006000f0040000a8
:020000040000fa
:04006400cc050000c7
:020000040000fa
:04006800cc050000c3
:020000040000fa
:04006c00cc050000bf
:020000040000fa
:04007000cc050000bb
:020000040000fa
:04007400a4040000e0
:020000040000fa
:04007800cc050000b3
:020000040000fa
:04007c00cc050000af
:020000040000fa
:04008000cc050000ab
:020000040000fa
:04008400cc050000a7
:020000040000fa
:04008800cc050000a3
:020000040000fa
:04008c00cc0500009f
:020000040000fa
:04009000cc0500009b
:020000040000fa
:04009400cc05000097
:020000040000fa
:04009800cc05000093
:020000040000fa
:04009c00cc0500008f
:020000040000fa
:0400a000cc0500008b
:020000040000fa
:0400a400cc05000087
:020000040000fa
:0400a800cc05000083
:020000040000fa
:0400ac00cc0500007f
:020000040000fa
:0400b000cc0500007b
:020000040000fa
:0400b4000e05000035
:020000040000fa
:0400b800cc05000073
:020000040000fa
:0400bc00cc0500006f
:020000040000fa
:0400c000cc0500006b
:020000040000fa
:0400c400cc05000067
:020000040000fa
:0400c800cc05000063
:020000040000fa
:0400cc00cc0500005f
:020000040000fa
:0400d000cc0500005b
:020000040000fa
:0400d400cc05000057
:020000040000fa
:0400d800cc05000053
:020000040000fa
:0400dc00cc0500004f
:020000040000fa
:0400e000cc0500004b
:020000040000fa
:0400e400cc05000047
:020000040000fa
:0400e800cc05000043
:020000040000fa
:0400ec00cc0500003f
:020000040000fa
:0400f000cc0500003b
:020000040000fa
:0400f400cc05000037
:020000040000fa
:0400f800cc05000033
:020000040000fa
:0400fc00cc0500002f
:020000040000fa
:04010000cc0500002a
:020000040000fa
:04010400cc05000026
:020000040000fa
:04010800cc05000022
:020000040000fa
:04010c00cc0500001e
:020000040000fa
:04011000cc0500001a
:020000040000fa
:04011400cc05000016
:020000040000fa
:04011800cc05000012
:020000040000fa
:04011c00cc0500000e
:020000040000fa
:04012000cc0500000a
:020000040000fa
:04012400cc05000006
:020000040000fa
:04012800cc05000002
:020000040000fa
:04012c00cc050000fe
:020000040000fa
:04013000cc050000fa
:020000040000fa
:04013400cc050000f6
:020000040000fa
:04013800cc050000f2
:020000040000fa
:04013c00cc050000ee
:020000040000fa
:04014000cc050000ea
:020000040000fa
:04014400cc050000e6
:020000040000fa
:04014800cc050000e2
:020000040000fa
:04014c00cc050000de
:020000040000fa
:04015000cc050000da
:020000040000fa
:04015400cc050000d6
:020000040000fa
:04015800cc050000d2
:020000040000fa
:04015c00cc050000ce
:020000040000fa
:04016000cc050000ca
:020000040000fa
:04016400cc050000c6
:020000040000fa
:04016800cc050000c2
:020000040000fa
:04016c00cc050000be
:020000040000fa
:04017000cc050000ba
:020000040000fa
:04017400cc050000b6
:020000040000fa
:04017800cc050000b2
:020000040000fa
:04017c00cc050000ae
:020000040000fa
:04018000cc050000aa
:020000040000fa
:04018400cc050000a6
:020000040000fa
:04018800cc050000a2
:020000040000fa
:04018c00cc0500009e
:020000040000fa
:04019000cc0500009a
:020000040000fa
:04019400cc05000096
:020000040000fa
:04019800cc05000092
:020000040000fa
:04019c00cc0500008e
:020000040000fa
:0401a000cc0500008a
:020000040000fa
:0401a400cc05000086
:020000040000fa
:0401a800cc05000082
:020000040000fa
:0401ac00cc0500007e
:020000040000fa
:0401b000cc0500007a
:020000040000fa
:0401b400cc05000076
:020000040000fa
:0401b800cc05000072
:020000040000fa
:0401bc00cc0500006e
:020000040000fa
:0401c000cc0500006a
:020000040000fa
:0401c400cc05000066
:020000040000fa
:0401c800cc05000062
:020000040000fa
:0401cc00cc0500005e
:020000040000fa
:0401d000cc0500005a
:020000040000fa
:0401d400cc05000056
:020000040000fa
:0401d800cc05000052
:020000040000fa
:0401dc00cc0500004e
:020000040000fa
:0401e000cc0500004a
:020000040000fa
:0401e400cc05000046
:020000040000fa
:0401e800cc05000042
:020000040000fa
:0401ec00cc0500003e
:020000040000fa
:0401f000cc0500003a
:020000040000fa
:0401f400cc05000036
:020000040000fa
:0401f800cc05000032
:020000040000fa
:0401fc00cc0500002e
:020000040000fa
:04020000cc05000029
:020000040000fa
:04020400cc05000025
:020000040000fa
:04020800cc05000021
:020000040000fa
:04020c00cc0500001d
:020000040000fa
:04021000cc05000019
:020000040000fa
:04021400cc05000015
:020000040000fa
:04021800cc05000011
:020000040000fa
:04021c00cc0500000d
:020000040000fa
:04022000cc05000009
:020000040000fa
:04022400cc05000005
:020000040000fa
:04022800cc05000001
:020000040000fa
:04022c00cc050000fd
:020000040000fa
:04023000cc050000f9
:020000040000fa
:04023400cc050000f5
:020000040000fa
:04023800cc050000f1
:020000040000fa
:04023c00cc050000ed
:020000040000fa
:04024000cc050000e9
:020000040000fa
:04024400cc050000e5
:020000040000fa
:04024800cc050000e1
:020000040000fa
:04024c00cc050000dd
:020000040000fa
:04025000cc050000d9
:020000040000fa
:04025400cc050000d5
:020000040000fa
:04025800cc050000d1
:020000040000fa
:04025c00cc050000cd
:020000040000fa
:04026000cc050000c9
:020000040000fa
:04026400cc050000c5
:020000040000fa
:04026800cc050000c1
:020000040000fa
:04026c00cc050000bd
:020000040000fa
:04027000cc050000b9
:020000040000fa
:04027400cc050000b5
:020000040000fa
:04027800cc050000b1
:020000040000fa
:04027c00cc050000ad
:020000040000fa
:04028000cc050000a9
:020000040000fa
:04028400cc050000a5
:020000040000fa
:04028800cc050000a1
:020000040000fa
:04028c00cc0500009d
:020000040000fa
:04029000cc05000099
:020000040000fa
:04029400cc05000095
:020000040000fa
:04029800cc05000091
:020000040000fa
:04029c00cc0500008d
:020000040000fa
:0402a000cc05000089
:020000040000fa
:0402a400cc05000085
:020000040000fa
:0402a800cc05000081
:020000040000fa
:0402ac00cc0500007d
:020000040000fa
:0402b000cc05000079
:020000040000fa
:0402b400cc05000075
:020000040000fa
:0402b800cc05000071
:020000040000fa
:0402bc00cc0500006d
:020000040000fa
:0402c000cc05000069
:020000040000fa
:0402c400cc05000065
:020000040000fa
:0402c800cc05000061
:020000040000fa
:0402cc00cc0500005d
:020000040000fa
:0402d000cc05000059
:020000040000fa
:0402d400cc05000055
:020000040000fa
:0402d800cc05000051
:020000040000fa
:0402dc00cc0500004d
:020000040000fa
:0402e000cc05000049
:020000040000fa
:0402e400cc05000045
:020000040000fa
:0402e800cc05000041
:020000040000fa
:0402ec00cc0500003d
:020000040000fa
:0402f000cc05000039
:020000040000fa
:0402f400cc05000035
:020000040000fa
:0402f800cc05000031
:020000040000fa
:0402fc00cc0500002d
:020000040000fa
:04030000cc05000028
:020000040000fa
:04030400cc05000024
:020000040000fa
:04030800cc05000020
:020000040000fa
:04030c00cc0500001c
:020000040000fa
:04031000cc05000018
:020000040000fa
:100400006f3121000eff21000e0188000000000066
:10041000000020000000e000020032000001200087
:100420002002880014000700dd0107000000e00042
:1004300003003a0000e5220001002000020037001e
:100440000000200001002000810f70000100320038
:100450000f000700000020000000e0000200320052
:100460000000020000000000262b02000000000037
:100470000040da000000fe00200020000000e00044
:1004800002003200100020009001880000000600e9
:10049000a1028800800478000000eb001f003700f4
:1004a000e284440054a0b4009905ba00e2844400f8
:1004b00054a0b4009906ba00e284440054a0b400e9
:1004c0000006eb00476fde00fd07b200ae018800ba
:1004d000636ce10003003a000ad801000000eb0061
:1004e0000e003700606ce10008003a00004deb00a0
:1004f0000a05e800020039003420ec000af0a000f0
:100500008b05e900f9ff3e00040037006168e10057
:10051000010032000086eb000b00070019c7ba008b
:100520000e04e0001905ba0003003a000a00e000da
:10053000dbff3a0000000600fe07b200ae028800b2
:100540008a047800f5ff37000cd0a300e20f4d00bd
:100550001c003b0089027800354dba000a05e8000e
:10056000020039003420ec000af0a0008b05e900fd
:100570000f003200254dba000a05e80002003900dc
:100580003420ec000af0a0008b05e90008003200de
:100590000c00e0000600320015cdba000a05e800a4
:1005a000020039003420ec000af0a0008b05e900bd
:1005b0008984e80054a0b4000b00e000e2ff3a0098
:1005c000000006009902ba00055d78008b05e9007d
:1005d000f7ff3200c82ade00055d78008b05e900d0
:1005e000f3ff32000c00e000f1ff320019ddba0029
:1005f000eeff3700000000000000000000000000d7
:1006000000000000000000000000000000000000ea
:1006100000000000000000000000000000000000da
:1006200000000000000000000000000000000000ca
:1006300000000000000000000000000000000000ba
:100640000000000000000000000000003600f8007c
:10065000809fbe00829fbe00849fbe00869fbe001a
:100660000000fa00c028a9000000eb00f715070001
:100670000080fa004f03be004f02be004f01be00d3
:100680004f00be003600f900004006003600f800ba
:10069000809fbe00829fbe00849fbe00869fbe00da
:1006a0000000fa00ee150700c048a9001000200065
:1006b000e61507000080fa004f03be004f02be009f
:1006c0004f01be004f00be003600f900004006009a
:1006d0003600f800809fbe00829fbe00849fbe004f
:1006e000869fbe000000fa00c068a900200020001c
:1006f000d61507000080fa004f03be004f02be006f
:100700004f01be004f00be003600f9000040060059
:100710003600f800809fbe00829fbe00849fbe000e
:10072000869fbe000000fa00c088a90030002000ab
:10073000c61507000080fa004f03be004f02be003e
:100740004f01be004f00be003600f9000040060019
:100750003600f800809fbe00829fbe00849fbe00ce
:10076000869fbe000000fa00c0a8a900400020003b
:10077000b61507000080fa004f03be004f02be000e
:100780004f01be004f00be003600f90000400600d9
:100790003600f800809fbe00829fbe00849fbe008e
:1007a000869fbe000000fa00c608a9007000200065
:1007b000a61507000080fa004f03be004f02be00de
:1007c0004f01be004f00be003600f9000040060099
:1007d0003600f800809fbe00829fbe00849fbe004e
:1007e000869fbe000000fa00214680000010200015
:1007f000008060000000e00003003200c508a9008e
:10080000c00020009115070021468000000028004c
:10081000008060000000e00003003200c5e8a9008d
:10082000800020008915070021468000000220007a
:10083000008060000000e00003003200c4a8a900ae
:1008400090002000811507002046800070006000a5
:100850000000e00003003200c488a900a0002000ce
:100860007a150700ffff37003600f800809fbe00b2
:10087000829fbe00849fbe00869fbe000000fa00db
:10088000209880000000e0000200320020988000e4
:100890000000010007d3bf000040e80007f3b700e5
:1008a00010c0b30006f3b7000068a9000080fa008a
:1008b0004f03be004f02be004f01be004f00be00fe
:1008c0003600f900004006003600f800809fbe00a8
:1008d000829fbe00849fbe00869fbe003200f8004b
:1008e0003400f80010002000a00188001000200053
:1008f00000d0fe000000fa0001408000000022004d
:10090000008060000000e000060032007098800067
:100910000000e0000200320070988000000001003a
:1009200001a8a9000080fa003400f9003200f900a3
:100930004f03be004f02be004f01be004f00be007d
:100940003600f900004006003600f800809fbe0027
:10095000829fbe00849fbe00869fbe000000fa00fa
:1009600010408000680060000000e00006003200d7
:10097000809880000000e000020032008098800033
:10098000000001000268a9000080fa004f03be00c9
:100990004f02be004f01be004f00be003600f900fe
:1009a000004006003600f800809fbe00829fbe0017
:1009b000849fbe00869fbe000000fa00a9130700b6
:1009c0000088a9000080fa004f03be004f02be005d
:1009d0004f01be004f00be003600f9000040060087
:1009e0003600f800809fbe00829fbe00849fbe003c
:1009f000869fbe000000fa009d13070001c8a900f1
:100a00000080fa004f03be004f02be004f01be003f
:100a10004f00be003600f900004006003600f80026
:100a2000809fbe00829fbe00849fbe00869fbe0046
:100a30000000fa00512080000002200000806000c9
:100a40000000e0001f003200512080000000220062
:100a5000008060000000e00005003200c0978000c8
:100a60000000e00002003200c0978000000001009a
:100a70005120800000002100008060000000e000a4
:100a800005003200d09780000000e0000200320034
:100a9000d0978000000001005120800000802000dd
:100aa000008060000000e00005003200e097800058
:100ab0000000e00002003200e0978000000001002a
:100ac0000aa4a90050208000620060000000e0003d
:100ad00006003200009880000000e00002003200b2
:100ae00000988000000001000a24a9005120800025
:100af00000042000008060000000e00006003200da
:100b0000f09780000000e00002003200f0978000c3
:100b1000000001000ac4a9000468a9000080fa00ce
:100b20004f03be004f02be004f01be004f00be008b
:100b30003600f900004006003600f800809fbe0035
:100b4000829fbe00849fbe00869fbe000000fa0008
:100b5000409880000000e0000200320040988000d1
:100b6000000001000bd3bf000040e8000bf3b7000a
:100b700010c0b3000af3b7000108a9000080fa0012
:100b80004f03be004f02be004f01be004f00be002b
:100b90003600f900004006000040da000000fe00c8
:100ba000000005000001be003f0007000470a70020
:100bb00003f0a1006509b100160032000d003500f8
:100bc0006828e10006003500f0ff2f00f1ff270044
:100bd0000300e00013003b000100280000000500b6
:100be00000004000818048008502e900fcff3a00d7
:100bf00008003700f88f420002003c008000eb0044
:100c0000000005008100d1000080d3008502e800cb
:100c1000fcff3a000300e00002003b00600010000f
:100c2000e0801800000006000001be001e00070062
:100c30000470a70003f0a10003f8a30013003a001a
:100c40006509b10010003200090035006928e10093
:100c500002003500010028000000050000004000ef
:100c6000818048008502e900fcff3a000000060090
:100c7000f88f4200050035008100d1000080d300cc
:100c80008502e800fcff3a00000006008000eb004f
:100c9000000005004f89de00820178006c033700f8
:100ca0006011b8007a033700c70ade00f107b2000e
:100cb000f50fb20008003200e1cf4200020032001e
:100cc0000170a00024000500810f700001003200b7
:100cd0000408050044000500810f700002003a007e
:100ce000140005008502e9000000400081c04800b2
:100cf000fcff3b000170a0002400050007f827005e
:100d0000078361000638e10004003a00f70720007d
:100d1000878361008703710001003a0003f0a2009d
:100d2000889fbe008a9fbe008c9fbe00470ade00df
:100d30000480a100c71ade000580a100070028007a
:100d40000785600087856100f70f20000720e1001c
:100d50009e0032000728e1009c0032000106780066
:100d60000400e000b4003200f70720008780600034
:100d70000170a0000500e000c0003200f70720006d
:100d8000878161000370a000050652000f003a0041
:100d90000b50e1000b0032000308e10002003a00b2
:100da0000200e1007e0032000204500083845800fb
:100db000040031000001fd008101fd008402fd00fe
:100dc0008a05fd006044b800210037000520e100dd
:100dd00005003d000001fd008101fd008402fd00d1
:100de0008a05fd00050652007a60e1000500350025
:100df0000170a1004722dd00848070008a807000ad
:100e0000630037006044b800ef02660007ff2f0060
:100e1000070666000500e00006003400f0831200bb
:100e20008714dd000511de00071bdd0006017100df
:100e30008519de007060e1000500350009047800c6
:100e400082047800030178008001eb0070065600f0
:100e50000b50e10003003a0002004000838048008c
:100e60000400370060041400e0841c0002005800f5
:100e7000838058000188a300060032008100d10061
:100e80000080d3008984d3000884d3000402e800e2
:100e9000270037000178a30025003a000100e00098
:100ea000030032008186cf00698656000a003700b1
:100eb0008c0020000000e00004003a0009007800e7
:100ec000880478000004eb00700252008086cf0096
:100ed0000d0646000c06e9007060e10006003500d2
:100ee0008000780009007800880478000004eb0096
:100ef00070065600700252000c00e0000c00340036
:100f00008c08dd00f00316000703de008680700009
:100f10000c00dd00074bde00060070008c4cdd008d
:100f20000743de00868474000c44dd000c0252008e
:100f30006120e10020003500610160000700280009
:100f400087816400f7ff270087836400070374002c
:100f50000300e00006003200820373000400320048
:100f60000000e800e08048000188a3000e003a007d
:100f7000f70f20000720e1004a003d000170a100aa
:100f80004722dd00810072008a8070000000be00f0
:100f90004f06be004f05be004f04be000000060015
:100fa0006000b800faff37008100d1000080d30054
:100fb0000402e800eeff37000401780089017400a4
:100fc000a10107008a807000f1ff3700f7010700d8
:100fd000070278000001fd008101fd00f301070018
:100fe00087027800850372000778a30004003200ae
:100ff0000001fd008101fd0006020700e4ff37004b
:10100000850362000768a300080032000b50e1006e
:1010100003003200f0ff2f00f1ff2700dcff370054
:101020000001fd008101fd00d9ff37000468a30025
:10103000d7ff3200faff3700f8ff270088836000ef
:101040000b003a000000e00009003a00830364004e
:1010500082837300020032000200be00ccff370022
:101060000b50e100ceff3a000200be00c8ff37007f
:1010700014002000810064003eff3700f8ff2700c5
:101080008883610004003a000200e00002003a0098
:101090008c007800beff370015002000830164003b
:1010a00039ff370001f8270000002000810075009b
:1010b000b7ff3700889fbe008a9fbe008c9fbe008e
:1010c0001b0020000202be00058668000600280002
:1010d000060666004709de00f20fb2008200320009
:1010e0000243e80080003200c729de00f30fb2009f
:1010f0007d0032000343e8007b003200f107b200bc
:101100000170a000f507b2000570a000c708dd005f
:101110004903de00868070004700dd00c72add003d
:101120004923de00868272004722dd00030551005c
:101130000403500085835800030031000000400084
:10114000818048000a05e9008c1f78008a9fbe0054
:1011500004005000858058000402420085824a0045
:1011600000004000818048000005eb000004be0044
:101170006033b8000406be000d48e100560031009f
:10118000110009004dccd8000c01b8000d02b800c8
:101190008481410060824a008283530003045c0022
:1011a00084845c0060055d000a00e00025003a00d0
:1011b000800578000d40e10049003100880078008a
:1011c00007007800110009004d88d8000c01b80014
:1011d0000d02b8008481410060824a006003110062
:1011e00083835b0004045c00e0845c000900e00091
:1011f00021003a004f01be000300e0002b00320046
:10120000e3016000070673008c8171000100320069
:10121000640070004200de004e5edd000c007000d5
:10122000c258de0001e0a00083010700cf01780072
:10123000818071004f06be004f05be004f04be0006
:10124000000006008c8343000d044c00e0844c0039
:1012500060054d000000e9000a00e000d4ff320004
:101260008c8343000d044c00e0844c0060054d006d
:101270000000e900ceff37000c0343008d834b00d4
:1012800060044c00e0844c000000e9000900e0002c
:10129000d8ff32000c0343008d834b0060044c00e8
:1012a000e0844c000000e900d2ff37004200de007d
:1012b0004e5edd000c007000c258de0001e0a000b0
:1012c000cf0178000300e000daff32006000100078
:1012d000e0801800d7ff3700f0ff2f00aaff37008b
:1012e000f0ff2f00b9ff37000404be002f010700f4
:1012f000870678000004fd008104fd002b01070033
:10130000078366000678a300030032000960a70087
:101310000800be002c0037000d78a3000200320048
:101320000800be00280037000778a30026003a0016
:1013300001f0a10009f0a1000668a300030032003b
:10134000f1ff2700f0ff2f00baff37000d68a30060
:10135000030032000800be008c807000b5ff37002b
:101360000768a30007003a000648a3000300320004
:10137000f1ff2700f0ff2f00aeff37000d48a3005c
:10138000030032006000b8008c807000a9ff3700b5
:101390000748a3000400320001f8270000002000e5
:1013a0008c807000a3ff3700760107000004fd0069
:1013b0008104fd0002057800720107000802be00ea
:1013c0008a01780059ff37000160a0001202200056
:1013d000a298880097ff37000100e0001200320059
:1013e0000500e00010003200889fbe008a9fbe000a
:1013f0008c9fbe000006eb0001f8a3000300320042
:1014000060001000e08018000cf0a00005f8a300b8
:101410000300320060021200e0821a000cf0a20009
:101420008005eb0041ff37006000b80002000500b6
:10143000038368000700280007036300470ade00f3
:101440000480a100c71ade000580a100f70f20006c
:101450000720e100420032000728e100400032008e
:10146000889fbe008a9fbe008c1f7800f107b200e3
:10147000f307b2000400e000640032000170a00035
:101480000500e000680032000370a00085054200fe
:10149000eb07b1000204b8000302b80084844400e2
:1014a00060854a00020ab800848444000a854a0024
:1014b000030ab80004054500040033000804d00006
:1014c0008984d2000a85d2008b05e9006158e100c9
:1014d0003d003500021020000901610003082000d2
:1014e00089816100f7072000878364000886730004
:1014f000c84cde00c853dd00878474004855de0008
:101500000300e0000600320082037600040032008f
:101510008904e80060054d000a88a3000c003a0029
:10152000f70f20000758e10044003d000a70a100b9
:10153000c75ddd000a8575008a0073000900780028
:101540004f0678004f05be004f04be0000000600a5
:101550000a05d1008984d3008b05e800f0ff37002d
:10156000881f7800060478009000070007027800c2
:101570000001fd008101fd008c000700870278005a
:10158000850372000778a300050032000001fd000a
:101590008101fd009f0007004f0478000000060055
:1015a000850372000748a30003003200f0ff2f00fc
:1015b000f1ff2700f8ff37000000200001f82700a6
:1015c00088807000f4ff3700880178004848dd000b
:1015d000808171004848de00c850dd0001007000c5
:1015e000c850de00060478000b01780016000700e2
:1015f00088807000d2ff37000500e000050032004f
:10160000170020003a0007009dff3700810370009b
:10161000f9ff3a00860078004f0678004f05be00bb
:101620004f04be000000050083037100f9ff320083
:10163000270020002e00070094ff370001f8270044
:1016400086807000f4ff37000100e00026003200c1
:10165000610111007810e10023003c006022b80015
:101660007010e1000400350080027800010078006d
:101670008000eb00700151000200e000090034001e
:1016800070031100062add00822ade008603dd00d9
:10169000878272000200de00860bdd00070070000a
:1016a0008208de0084817100f4ff2700048262005a
:1016b000848171000400280084826200610260005d
:1016c00005f0a60000000600048271000700320049
:1016d0000000e800e0804800000006000002be00b4
:1016e0006000b800efff37006000b800000006009f
:1016f000889fbe000004eb006138e10016003a004c
:101700000100e00008003a00c800de004800dd00eb
:10171000880020000100e00003003a00c800de005d
:101720004800dd00680444008184cf00e98454004f
:10173000060034008908dd00f08314008703de0012
:10174000878070000900dd00090444006102140074
:101750004f04be00000006000300e00008003a004d
:10176000c811de004811dd00880020000300e00001
:1017700003003a00c811de004811dd00680444008f
:101780008384cf00e9845400060034008919dd0009
:10179000f08314008713de00878171000911dd00da
:1017a00009044400e1021400e9ff3700270020008b
:1017b00001f0a70017002000470bde00f60fb20073
:1017c000040032000643e8000a0032004702b3007a
:1017d0000000060001037800f607b200060370005f
:1017e00002003a000703b300000006008702b300be
:1017f0000000060001037800f607b200060370003f
:10180000020032000770a000000006000760a00080
:10181000000006000478a300040032000578a3004d
:10182000030032000168a30001003a000200be007c
:101830000160a00000000600810170002700320056
:101840008002eb0001f8a3000300320060001000ea
:10185000e080180015002000f4072000020242007a
:1018600020003400f70320008703600006042000f6
:101870000003630002082000000161004700de0051
:10188000c909dd0000807100c708de000600e00025
:101890000800320087037100060032001000b0001b
:1018a0000180b0000188a30002003200c108de0000
:1018b0000402e800f107b200f30f20000320e1006a
:1018c00003003d004722dd0081007200290037003f
:1018d00001f827000000eb00260037006000b80088
:1018e00000000600680212007f20e10002003400c0
:1018f0006000b8001f0037006011b8007020e100e0
:101900000400350080017800010078008000eb00c1
:10191000700252000400e00009003400f0031200dd
:101920000719dd008419de000703dd0086817100e0
:101930000400de00070bdd00060070008408de00f6
:10194000f7ff2700838363008703710006002800e8
:1019500003036300070032000700e00003003a00c1
:101960006101600002817300020032001000b000cb
:101970000180b0000500a6000000060001f0a000f4
:10198000000006004f0ade004709de00f107b20042
:10199000f20fb2000b003200f207b1000170a0009c
:1019a000c708dd00c901de00838070004700dd004c
:1019b0000400a6000000060060001000e08018008f
:1019c00000000600810f700001003a0000000600d0
:1019d0008182cf000500e00010003e008082cf0031
:1019e000ee8242007028e1000400390007003e004a
:1019f000800078000000eb000e00370070831200ba
:101a00008600de000500dd000a003700708352000a
:101a10008600dd000000eb0006003700e282520085
:101a20008508dd00708312000603de0086807000ea
:101a30000500dd007507b0000501ea000400a600fe
:101a40000000060060001000e080180000000600a2
:101a5000881f7800030478000300e00007003d00c1
:101a600060001000e080180060011900e08119009a
:101a700002003b0001f02d000300370004000700c6
:101a800008f0a70001f0a0004f0478000000060055
:101a9000889fbe008a9fbe00008270000402710011
:101aa00004827100260032000004be000200be0065
:101ab0006011b8006b092000950220000182cf0060
:101ac0000a0039000541b1000082cf00070039004b
:101ad0000541b1000982cf00040039000541b10081
:101ae0000882cf00010039000541b10005425200d3
:101af000120032000a003b00828171006101640023
:101b00008100d1000080d3008984d3000884d300f1
:101b10008b05e8000442e800f7ff3a0007003700b1
:101b20000804440089844c0000004800818048007b
:101b30008b05e9000442e900f9ff3a0003000700c1
:101b40004f05be004f04be000000060081002000cb
:101b5000618055000b003d000b00200061fe2f004e
:101b60000100e1001d003400828171006101640008
:101b70008904d1000884d3000000e800faff3a008d
:101b8000710020006100640003007000020060002a
:101b90000900320061044400e0844c000988a5007b
:101ba000050032008b05e8006808e10002003a00f9
:101bb0008904d1000884d300f20f20000258e1000c
:101bc00005003d00c75ddd00f907b20089807500a2
:101bd00008007800000006000bf827008b00780052
:041be00000000500fc
:020000040000fa
:101be4000000fa0021e3a8000080fa0000000600cb
:101bf4000000fa002023a8000080fa00000006007c
:101c04000400fa00100798001e009000e20f500034
:101c140012003200e20f500005003e000000e00018
:101c240008003200e10f50000900320014003700b0
:101c3400e30f50000c003200e40f50000d0032009e
:101c44000f00370001188000010f78000c003700e6
:101c540011188000010f7800090037002118800056
:101c6400010f78000600370031188000010f78005a
:101c74000300370041188000010f780000000000c5
:101c84001e0078000080fa00000006000000fa0040
:101c940001eca8000080fa00000006000400fa002d
:101ca400000f7800110798001e007800e20f500022
:101cb40007003200e30f500008003200e10f50002b
:101cc4000a003a009e009000316188000800370045
:101cd4009e00900031628800050037009e0090004d
:101ce400316388000000000001003700000000009c
:101cf4000080fa00000006000000fa007e32ef00c7
:101d04008032ef00622921006000b8000089be0023
:101d140060292100012d210031009800792ea900ad
:101d24007d2ea900642ea900640ea80010c0b30083
:101d340023f2b700fe080700f0080700a8ff070019
:101d4400abff070040002000060907002b0907002d
:101d5400e40f500002003a000000eb000109070004
:101d6400f00f2000309588000080fa000000060083
:101d74000000fa00f171800000042000008060007f
:101d84000000e0001100320004d2bf000004e000b3
:101d940003003a0005d2bf000004e0000c0032004a
:101da40007d2bf000004a2000004e00008003200d3
:101db40008d2bf000004a2000004e00004003200c6
:101dc40010c0b30023f2b700010037002372ef0004
:101dd40023d2bf000004a2000004e000130032007c
:101de400f29380000394800010948000219480007a
:101df400800f5100818f59000c003600f093800051
:101e040001948000401fb0000180b000109488004d
:101e140021948800609280000080ea00609288002b
:101e2400709280000080ea007092880023d2bf0084
:101e34000004e000030032004c32ef004e32ef00a9
:101e44002472ef000cd2bf000004e00003003a004b
:101e540024d2bf000004e00002003200048ea80077
:101e640001003700048ea90023d2bf000004e00063
:101e74001200320007d2bf000004e00003003a0061
:101e840008d2bf000004e0000c00320005d2bf00fd
:101e94000004a2000004e0000800320080928000e8
:101ea400e90f500003003c0090928000e90f5000bd
:101eb40002003400054ea80001003700054ea900b9
:101ec4000ad2bf000004e00003003a000bd2bf00b6
:101ed4000004e0000300320010c0b3000ff2b700aa
:101ee400010037000f72ef0000d2bf000004e000d1
:101ef40009003a0001d2bf000004e00006003a00e5
:101f040002d2bf000004e00003003a0003d2bf0085
:101f14000004e0000300320010c0b30010f2b70068
:101f2400010037001072ef000bd2bf000004e00084
:101f34000400320000d2bf000004a2000004e0004c
:101f440003003a0001d2bf000004e00003003200a5
:101f540010c0b30011f2b700010037001172ef0096
:101f64002000200026ff0700c09288000000eb003c
:101f740023ff0700d09288001000200020ff0700f4
:101f8400f092880080928000ea0f50000b00340029
:101f9400c192800060122000808f5000070034003e
:101fa400c192800070122000808f500003003c001a
:101fb40010c0b3001df2b7000f00370090928000ec
:101fc400ea0f50000b003400d19280006012200010
:101fd400808f500007003400d192800070122000de
:101fe400808f500003003c0010c0b3001df2b70006
:101ff400010037001d72ef001dd2bf000004e00095
:1020040004003200109280000000e8001092880062
:10201400010037004232ef0011928000301f20008f
:10202400808f5000040036004232ef0010c0b3002d
:102034001ef2b700010037001e72ef00d293800039
:10204400e393800000742700b1012000800f510049
:10205400818f590001003600050ea9000080fa00a6
:10206400000006000000fa00889fbe002192800054
:1020740010f82700008040000000400000f0a70096
:102084000000ea00cf80de0001fb070030938800e7
:102094004193880008d2bf000004e000040032002d
:1020a40009d2bf000004a2000004e00006003a00c8
:1020b40005d2bf000004e00003003a0004d2bf00d0
:1020c4000004e0000600320010c0b30018f2b700ac
:1020d4005432ef006000b800509388006193880088
:1020e40008d2bf0009f2b70010d2bf000004a2005a
:1020f4000004e000080032001cd2bf000004e0002d
:1021040003003a001bd2bf000004e00002003200ca
:10211400e0918000a091880030938000419380007a
:1021240002002000f3372400e1fb0700109388002d
:1021340021938800109380002193800002002000e6
:10214400c3272400b9fc0700b6fa07000040780052
:1021540025f2b7009191800010f82700008040001c
:102164000000400000f0a7000000ea00cf80de007d
:10217400c7fa07000002be0010938000219380007c
:102184000001be000400be00a8fc0700a5fa070079
:1021940000007800c0918800a191800010f8270009
:1021a400008040000000400000f0a7000000ea00aa
:1021b400cf80de00b6fa07000002be001093800054
:1021c400219380000001be000400be0097fc0700bc
:1021d40094fa070000007800d0918800c191800033
:1021e400f00e2000808f500002003600000f200007
:1021f400c0918800c09180000000e00001003a0016
:102204003832ef00d1918000f00e2000808f500012
:1022140002003600000f2000d0918800d091800089
:102224000000e00001003a003a32ef0007d2bf009c
:102234000004e00003003a0008d2bf000004e000fc
:102244000b00320000d2bf000004e00003003a009b
:1022540001d2bf000004e00005003200c0918000fc
:1022640080928800c091800090928800d700370047
:1022740008d2bf000004e0002a00320010d2bf00e0
:102284000004a2000004e000260032000fd2bf00c8
:102294000004e000230032001cd2bf000004a200ae
:1022a4000004e0001f0032001bd2bf000004a200a3
:1022b4000004e0001b00320018d2bf000004e0005c
:1022c4000b003200509380006193800034fa0700c1
:1022d4000000780080928800509380006193800011
:1022e4002ffa070000007800909288000a00370057
:1022f400309380004193800029fa070000007800a1
:1023040080928800309380004193800024fa070073
:1023140000007800909288001672ef001572ef00aa
:10232400aa00370008d2bf000004e0008300320096
:1023340000d2bf000004a2000004e0007f003200cd
:1023440001d2bf000004a2000004e0007b003200c0
:1023540002d2bf000004e00009003a0003d2bf002b
:102364000004e00006003a001cd2bf000004e000b4
:1023740003003a001bd2bf000004e0006f003200eb
:102384000ad2bf000004e0000a00320002d2bf00fb
:102394000004e00014003a001bd2bf000004e00077
:1023a4000400320010d2bf000004a2000004e000c8
:1023b4000d003a000bd2bf000004e00028003200f8
:1023c40003d2bf000004e00007003a001cd2bf00a3
:1023d4000004e0002200320010d2bf000004a2007a
:1023e4000004e0001e00320030938000419380001e
:1023f400ebf9070000007800809288003893800091
:1024040049938000d0918000000040008000eb00e0
:1024140022fa07000001be000800be0036fa0700d9
:10242400dff9070000007800909288009092800005
:102434000000e00007003d009092800000f0a7003b
:102444000000ea009092880010c0b30015f2b700b3
:10245400010037001572ef00000000005b00370038
:102464000ad2bf000004e0000a00320003d2bf0019
:102474000004e00014003a001cd2bf000004e00095
:102484000400320010d2bf000004a2000004e000e7
:102494000d003a000bd2bf000004e00046003200f9
:1024a40002d2bf000004e00007003a001bd2bf00c4
:1024b4000004e0004200320010d2bf000004a20079
:1024c4000004e0004000320030938000419380001b
:1024d400b3f90700000078009092880038938000d8
:1024e40049938000d0918000000040008000eb0000
:1024f400eaf907000001be000800be00fef907006b
:10250400a7f907000000780080928800809280007c
:102514000000e00007003d008092800000f0a7006a
:102524000000ea008092880010c0b30016f2b700e1
:10253400260037001672ef002400370000d2bf00d7
:102544000004a2000004e0001800320001d2bf0021
:102554000004a2000004e0001400320007d2bf000f
:102564000004e0001100320002d2bf000004e000c9
:1025740004003200d0918000809288005232ef0033
:102584001200370003d2bf000004e0000400320050
:10259400d0918000909288005032ef000b003700f9
:1025a4005032ef005232ef00080037005032ef0093
:1025b4005232ef000500370000000000030037002e
:1025c40000000000010037000000000007d2bf0037
:1025d4000004e00003003a0008d2bf000004e00059
:1025e4001b00320000d2bf000004e00003003200f0
:1025f40002d2bf000004e00006003a0001d2bf008e
:102604000004e0001200320003d2bf000004e00026
:102614000f003200c1918000d09180000080400002
:102624008092880081928000f00e2000808f5000fc
:1026340027003400000f200080928800c1918000a0
:10264400d0918000008050009092880020003700d4
:1026540007d2bf000004e00003003a0008d2bf0024
:102664000004e0001a00320000d2bf000004e000c1
:102674000300320003d2bf000004e00006003a0069
:1026840001d2bf000004e0001100320002d2bf00fa
:102694000004e0000e003200c1918000d09180005f
:1026a400008040009092880091928000f00e2000fb
:1026b400808f500006003400000f200090928800a4
:1026c400c1918000d09180000080500080928800e9
:1026d400809280000000e00001003c005032ef00d6
:1026e400909280000000e00001003c005232ef00b4
:1026f4004f04be000080fa00000006000000fa004b
:1027040023d2bf000004e0001500320007d2bf004e
:102714000004e00003003a0008d2bf000004e00017
:102724000f00320080928000e90f50000c0034004a
:1027340081928000f00e2000808f5000020034004f
:10274400000f20008092880050fd070080928000d6
:10275400800078001000200050fd070003003700bf
:102764008000eb00100020004cfd070023d2bf00c6
:102774000004e0001500320007d2bf000004e000ae
:1027840003003a0008d2bf000004e0000f0032004a
:1027940090928000e90f50000c0034009192800068
:1027a400f00e2000808f500002003400000f200043
:1027b4009092880035fd0700909280008000780098
:1027c4002000200035fd0700030037008000eb00e7
:1027d4002000200031fd07000080fa000000060000
:1027e4000000fa0011d2bf000004e000040032002f
:1027f40015d2bf000004a2000004e00006003a0065
:102804000ad2bf000004e0000500320015d2bf0068
:102814000004e00002003200042ea9000100370089
:10282400042ea80011d2bf000004e000040032000e
:1028340016d2bf000004a2000004e00006003a0023
:102844000ad2bf000004e0000500320016d2bf0027
:102854000004e0000200320004eea9000100370089
:1028640004eea8000080fa00000006000000fa0050
:102874001170800000002100008060000000e00072
:1028840034003a0040002000ddfc0700009388007b
:1028940001938000c01a2000808f5000040034008f
:1028a40010c0b30021f2b7002072ef000a00370015
:1028b40001938000b01a2000808f500004003c0077
:1028c40010c0b30020f2b7002172ef0002003700fd
:1028d4002072ef002172ef0000938000c01ab10053
:1028e40000f0a7000000ea00009388001170800047
:1028f40000802000008060000000e0001f003a001b
:102904003294800043948000f0938000019480000e
:10291400800f5100818f5900180031001fd2bf0071
:102924000004a2000080fb00004078001ff2b70002
:10293400f293800003948000007d200001002000b9
:10294400020040008380480030948800419488004d
:102954000a003700b191800010f827000080400081
:102964000000400000f0a7000000ea000093880087
:102974001f72ef002072ef002172ef0000938000bd
:10298400e40f500001003c006032ef00b091800081
:10299400f007b1000001780002f0a7000201ea008c
:1029a40090e320000090b9004f91de0002805000b7
:1029b400409288003000200091fc0700309288008b
:1029c40023d2bf000004e0000700320006d2bf009b
:1029d4000004e00004003200410120003000200027
:1029e400aefc0700040037000093800080007800ec
:1029f40030002000a9fc070023d2bf000004e0003f
:102a04000f00320019d2bf000004e0000c003200b5
:102a140008d2bf000004e00003003a0006d2bf0061
:102a24000004e000060032000ad2bf000004e00007
:102a340009003a000bd2bf000004e00006003a008f
:102a44001fd2bf000004e0000500320021d2bf0005
:102a54000004e000020032002daea800010037009f
:102a64002daea90023d2bf000004e0000f00320005
:102a74001ad2bf000004e0000c00320008d2bf00ec
:102a84000004e00003003a0006d2bf000004e000a6
:102a9400060032000ad2bf000004e00009003a0038
:102aa4000bd2bf000004e00006003a001fd2bf00b2
:102ab4000004e0000500320020d2bf000004e00062
:102ac40002003200192ea80001003700192ea900b7
:102ad4000080fa00000006000000fa007232ef00e5
:102ae4007432ef0011003700a50607000004e0006f
:102af40008003200602921000f0607000004e000ee
:102b04000400320010c0b30017f2b7005632ef00d1
:102b14000d00370090938000a19380006100400075
:102b2400e080480090938800a193880092938000ed
:102b3400a39380001003200001002000800f5100a7
:102b4400818f5900e8ff360017d2bf000004e0006f
:102b54000a013200602921009000900010007800e2
:102b6400a238200003002000820f5000838f5800f9
:102b740043003200a238200003002000820f5000de
:102b8400838f58000b003e00a21820000300200091
:102b9400820f5000838f58008d003200a22820003d
:102ba40003002000820f5000838f58000c00320075
:102bb400eb003700520e2d0013802100820f5000cd
:102bc400838f580050003200221f2100f38f210010
:102bd400820f5000838f5800df003200e00037007e
:102be4007232ef007432ef001500370090938000ca
:102bf400a193800062292100320290009293800008
:102c0400a39380000201780002014200124178007f
:102c14000281fb000000780080004000002b2100ae
:102c2400008040000208780090938000a193800007
:102c340061004000e080480090938800a1938800e0
:102c440092938000a3938000700020000100200074
:102c5400800f5100818f5900e4ff36008095800079
:102c64009091880090958000a0918800a0958000a4
:102c7400b0918800b0958000e0918800be003700d4
:102c84007232ef007432ef00150037009093800029
:102c9400a193800062292100320290009293800067
:102ca400a3938000020178000201420012417800df
:102cb4000281fb000000780080004000002c21000d
:102cc400008040000208780090938000a193800067
:102cd40061004000e080480090938800a193880040
:102ce40092938000a39380007000200001002000d4
:102cf400800f5100818f5900e4ff36000096800058
:102d0400209288009c0037007232ef007432ef008a
:102d14001200370090938000a19380006229210063
:102d24003202900092938000a39380000201780005
:102d34000201420012417800832a2100030040006e
:102d44000248780090938000a193800061004000c5
:102d5400e080480090938800a193880092938000bb
:102d6400a39380007000200001002000800f510018
:102d7400818f5900e7ff3600a8d2bf000080fb0016
:102d8400f0928800a9d2bf000080fb003092880036
:102d9400aad2bf0028f2b700abd2bf0029f2b70015
:102da400acd2bf000080fb004880de000040780009
:102db4002af2b700add2bf002af2b700aed2bf00ec
:102dc4002bf2b700afd2bf002cf2b7006a00370075
:102dd4007232ef007432ef001200370090938000db
:102de400a193800062292100320290009293800016
:102df400a39380000201780002014200124178008e
:102e0400832a210003004000024878009093800048
:102e1400a193800061004000e08048009093880006
:102e2400a193880092938000a393800070002000f7
:102e340001002000800f5100818f5900e7ff360008
:102e4400a8d2bf002ff2b700a8d2bf000080fb00b9
:102e54006100600000f0a7000000ea000000ea0042
:102e64004f00de00004078009ef2b700a8d2bf00f9
:102e74000080fb007000600000f0a7000000ea0082
:102e84000000ea004f00de00004078009ff2b70027
:102e9400a8d2bf000080fb006200600000f0a70021
:102ea4000000ea000000ea004f00de000040780065
:102eb400a0f2b700a8d2bf008080fb00000220006f
:102ec4000080600000f0a7000000ea000000ea00b3
:102ed4004f00de0000407800a1f2b700a8d2bf0086
:102ee4000080fb006400600000f0a7000000ea001e
:102ef4000000ea004f00de0000407800a2f2b700b4
:102f04009ed2bf000004e00009003200009380005c
:102f14000000e80000938800209580000000400035
:102f240020958800209580000000e8002095880006
:102f34009fd2bf000004e0000e0032000093800026
:102f44000000e90000938800209580000000d10073
:102f540020958800080037002c2ea80006003700b2
:102f6400320020004106200020002000dc08070079
:102f740001003700000000001772ef000080fa0023
:102f8400000006001200fa00000f9800e800470055
:102f9400030009008018eb0019d2bf000004e00010
:102fa4001900320070002000f18e2100008fbe0055
:102fb40000cbb300004f980010c0b300104f98002e
:102fc40010c0b300204f98002e0090000010a10004
:102fd400200798002e0090000000a0002007980011
:102fe400ae00900030fc2f00008060000050a00074
:102ff4002007980068004700300798008e0078008a
:1030040030002000840407000e089000e20f5000f6
:103014006d003200e30f5000d1003200e10f500088
:10302400e5003a0014d2bf000004e0003900320089
:10303400a020200001002000008fbe00f09280003c
:10304400fe00b9000000e00001003d00f03fb000c8
:103054004a80de000040780063404000004f980042
:103064003092800000407800104f980025d2bf00b5
:10307400204f9800409280004800de000040780015
:10308400304f98004092800000407800404f9800f4
:103094002095800000407800004f98002095800023
:1030a4004800de0000407800104f9800e0cfb300e5
:1030b400204f98000040eb00304f98000040eb0098
:1030c400404f98000040eb00504f98000040eb0048
:1030d400604f98000040eb00704f98002e00900065
:1030e4000010a100200798002e0090000000a1000d
:1030f40020079800ae00900030fc2f000080600094
:103104000050a0002007980068004700300798008e
:1031140024003700a018200001002000008fbe000a
:103124006092800000407800004f98007092800008
:1031340000407800104f98000040eb00004f9800ca
:103144000040eb00104f98000040eb00204f980027
:103154000040eb00304f98000040eb00404f9800d7
:103164000040eb00504f98000040eb00604f980087
:103174002e0090000010a100200798002e0090005f
:103184000000a10020079800ae00900030fc2f0042
:10319400008060000050a0002007980068004700ed
:1031a4003007980014d2bf000004a2000080fb0086
:1031b4000040780014f2b7008e0078003000200040
:1031c400150407008000370014d2bf000004e0009b
:1031d40022003200005d2e0011802100008fbe000d
:1031e4005092800000407800004f98005092800078
:1031f4004800de0000407800104f98002dd2bf0038
:10320400204f980027d2bf00304f9800a0302000f4
:1032140001002000008fbe0030958000004078003f
:10322400004f98002e0090000010a1002007980085
:103234002e0090000000a10020079800ae0090002e
:1032440030fc2f00008060000050a0002007980090
:10325400680047003007980038003700a02020009d
:1032640001002000008fbe00f0928000fe00b90033
:103274000000e00001003d00f03fb0004a80de00a5
:103284000040780063404000004f98003092800076
:1032940000407800104f980025d2bf00204f9800be
:1032a400409280004800de0000407800304f9800d3
:1032b4004092800000407800404f980020958000a4
:1032c40000407800004f9800209580004800de0000
:1032d40000407800104f98000040eb00204f980009
:1032e4000040eb00304f98000040eb00404f980046
:1032f4000040eb00504f98000040eb00604f9800f6
:103304000040eb00704f98002e0090000010a100c8
:10331400200798002e0090000000a10020079800cc
:10332400ae00900030fc2f00008060000050a00030
:1033340020079800680047003007980014d2bf00a7
:103344000004a2000080fb000040780014f2b700e3
:103354008e00780030002000af0307001a00370009
:103364006000b800008fbe0010c0b300004f98008a
:103374000040eb00104f98002e0090000010a100b8
:10338400200798002e0090000000a100200798005c
:10339400ae00900030fc2f00008060000030a000e0
:1033a4002007980068004700300798008e007800d6
:1033b400300020009803070032002000410620005e
:1033c40030002000c60707000080fa000000060055
:1033d4000000fa00f0938000019480006100400036
:1033e400e0804800f09388000194880018d2bf0060
:1033f4000004e0001b003200a09280000000e800fe
:10340400a0928800a1928000803e2000808f50000e
:103414000f003400a0928000803eb100cf80de0017
:103424001bf607000002be00309380004193800029
:103434000001be000400be00fcf7070002002000eb
:10344400a35724001af7070050938800619388005b
:10345400a192800080382100808f50000100340048
:103464001872ef0008d2bf000004e00003003a0025
:1034740010d2bf000004e000030032007a32ef00f3
:103484007c32ef0006003700d0938000e193800087
:1034940061004000e0804800d0938800e1938800f8
:1034a400f1928000400f2000808f500004003c0007
:1034b400e09280000000e800e092880001003700fc
:1034c4005c32ef000080fa00000006000000fa0001
:1034d400509480006194800061004000e0804800c6
:1034e40050948800619488000080fa00000006006f
:1034f4000000fa00320020004106200010002000e5
:103504007707070010c0b30026f2b700faf90700e6
:1035140007030700f9020700050ea8003000200089
:1035240098fe070092948000a3948000f09380009a
:1035340001948000800f5100818f590009003e00e2
:10354400f093800001948000a00fb0000180b000cf
:1035540090948800a194880026d2bf000080fb00cc
:1035640088fe07005cfd070001fa0700bdfa0700aa
:103574009bfc070061fc0700bcfc0700e9ff370067
:103584000200fa0032002000410620002000200042
:1035940053070700500020003b07070020c0b3007a
:1035a40026f2b700d4f90700e1020700d3020700ae
:1035b4000040eb00004f78003000200071fe07004f
:1035c40092948000a3948000f09380000194800082
:1035d400800f5100818f59000a003e00f093800053
:1035e400019480002003b0000180b0009094880012
:1035f400a194880038fd070026d2bf000080fb009c
:1036040060fe0700117080000080200000806000d0
:103614000000e000050032001e4078000004e000d5
:10362400020032000040eb00004f7800a0d2bf003f
:103634000004e00003003a00a1d2bf000004e0004f
:103644000200320010c0b30013f2b700a0d2bf00d2
:103654000004e0000200320010c0b30019f2b70009
:10366400a1d2bf000004e000010032001972ef0093
:10367400a2d2bf000004e000020032001372ef0087
:103684001972ef0000938000ef00b9005092880097
:1036940050928000ec00b900509288005192800052
:1036a40040062000808f500002003e0040062000ab
:1036b4005092880051928000007d2000808f50003d
:1036c40002003600007d20005092880013d2bf0013
:1036d4000004e0000b00320019d2bf000004e00037
:1036e4000400320010c0b30027f2b700186ea8001f
:1036f400b3ff370050c0b30027f2b7002c0ea80068
:10370400afff37002772ef00186ea9002c0ea90036
:10371400abff37000200fa00000f78001e007800ab
:10372400e10f500009003200e10f5000050039009c
:10373400e20f500007003200e30f50000700320090
:103744000800370001eba8000600370011eba800c1
:103754000400370021eba8000200370031eba80079
:10376400000000000080fa00000006000400fa00d7
:10377400000f7800110798001e007800e10f500038
:103784000b003200e10f500005003900e20f500039
:103794000b003200e30f50000d0032001000370020
:1037a4009e00900021588800062bef000c00370083
:1037b4009e009000a1588800162bef0008003700e7
:1037c4009e00900021598800262bef00040037004a
:1037d4009e009000a1598800362bef0000000000e5
:1037e4000080fa00000006000400fa00000f7800d0
:1037f400110798001e007800e10f50000a00320003
:10380400e10f500005003900e20f500009003200ba
:10381400e30f50000a0032000c0037009e009000b5
:1038240061588800090037009e009000e158880024
:10383400060037009e00900061598800030037009d
:103844009e009000e1598800000000000080fa000a
:10385400000006000c00fa00889fbe008a1f780052
:10386400004f9800510798000000eb0010079800e3
:103874000000eb00000f78006000b80020079800fb
:10388400310798000e4890000080fb00c400dd0062
:1038940000002100008040001000780061006000fa
:1038a400100798001e0090000000e00018003a0085
:1038b4000e4890000080fb00c400dd0000002100e1
:1038c4000080400090007800c0ff2100008060006c
:1038d4004200de008000eb005e0190000089be0023
:1038e4005e009000a00090000100a100210098005b
:1038f4000e4890000080fb00c400dd0000002100a1
:103904000080400010007800620f60005f00370004
:103914000e4890000080fb00c400dd000000210080
:1039240000804000100078006104b800c0ff21004e
:10393400010020000805780009047800800478005c
:10394400810078000900650081006400810378002b
:10395400000378000600be00200798003107980095
:103964002e009000be009000c000dd00000020008a
:103974005e039000008bbe005e009000100478008f
:10398400900490000e4890000080fb004400dd008d
:103994008080e800000021000080400010007800d2
:1039a4006103b800f0ff2000010020000605780044
:1039b4000703780080037800810078000700650021
:1039c4008100630081027800000278004628dd004f
:1039d400ca20de00810070004620dd00080040009f
:1039e400898048005e029000008abe005e0090005c
:1039f40010037800900390000e4890000080fb00b4
:103a04004400dd00e400400000002100008040008c
:103a1400100078004a00de006102b800f0ff2f00b9
:103a24000100200004047800050278008002780078
:103a34008100780005006400810062008101780043
:103a4400000178000200be000600400087804800a4
:103a54005e0190000089be005e009000a00090000e
:103a64000100a000210098000e4890000080fb0097
:103a74004400dd00e400400000002100008040001c
:103a84009000780000202000008f60001e00780065
:103a94000000e000050032005e009000a0009000ed
:103aa4000110a000210098007b0037005e00900008
:103ab400a00090000110a100210098005e00900079
:103ac400300090008e4890008180fb00c408dd0027
:103ad40066814000010021008100410091007800ce
:103ae40081407800014878005e009000300090002a
:103af4000000e8008e4890008180fb00c408dd00cf
:103b0400668140000100210081004100910078009d
:103b1400c808de0081407800014878005e0090000b
:103b2400300090000080e8008e4890008180fb0007
:103b3400c408dd00688140000100210081004100cb
:103b44009100780081407800014878005e00900080
:103b540030009000630040008e4890008180fb009c
:103b6400c408dd006881400001002100810041009b
:103b740091007800c808de00814078000148780090
:103b84005e00900030009000640040008e48900079
:103b94008180fb00c408dd006a814000010021002f
:103ba400810041009100780081407800014878004c
:103bb4005e00900030009000650040008e48900048
:103bc4008180fb00c408dd006a81400001002100ff
:103bd4008100410091007800c808de00814078002f
:103be400014878005e0090003000900066004000bc
:103bf4008e4890008180fb00c408dd006c81400089
:103c0400010021008100410091007800814078008a
:103c1400014878005e00900030009000670040008a
:103c24008e4890008180fb00c408dd006c81400058
:103c3400010021008100410091007800c808de00e5
:103c440081407800014878000e4890000080fb0015
:103c54004400dd00e400400000002100008040003a
:103c640010007800004078006f4060006f406000f2
:103c74006f406000de0090000080fb006f00600079
:103c84004200dd00a101900032fc2f00028161009e
:103c940002007000a00098004f0578004f04be0099
:103ca4000080fa00000006000400fa00000f78000b
:103cb400110798001e009000200090006100600031
:103cc4000000e00015003a001e00900090009000f3
:103cd4001000780080007800f07f200000806000f1
:103ce400c200dd001e007800010878001e80e80094
:103cf4008000eb00010878009e007800648040009a
:103d04009e009000a1009000c208de00efc0600099
:103d14008180fb0001087800250037001e00900018
:103d240090009000100078004008de0080007800c9
:103d3400c0ff210000806000800078003100b300e3
:103d44001e007800010878001e81e8001e00900023
:103d54009000900010007800ca09dd004600de00e3
:103d640000807100c608de0080007800f0ff2000ab
:103d740000806000000978009e00780064814000a3
:103d84001e009000200090004200de006f406000a2
:103d94008081fb001e0090009000900010007800cd
:103da400000078004a00dd0000804100000978002e
:103db4001e009000300090000000e0003b00320044
:103dc4009e017800668041009e009000b100900042
:103dd4008100e800914078008180fb004809dd0003
:103de4009e009000b1009000914078008180fb001b
:103df40081004100010878009e007800688040003e
:103e04009e009000b1009000e38040009140780053
:103e14008180fb004809dd009e009000b100900005
:103e24008180e800914078008180fb00810041009e
:103e3400010878009e0178006a8041009e0090008d
:103e4400b1009000e5804000914078008180fb0043
:103e54004809dd009e009000b1009000e48040001d
:103e6400914078008180fb008100410001087800c6
:103e74009e0078006c8040009e009000b10090008d
:103e8400e7804000914078008180fb004809dd0014
:103e94009e009000b1009000e680400091407800c0
:103ea4008180fb0081004100010878000080fa0055
:103eb400000006000000fa002468a9000c24ef00aa
:103ec40001208000f08f2f000080600000a0a0007f
:103ed400002088000000000001208000000e200067
:103ee4008080600000082000808f5000faff3a00b4
:103ef4007000200080208800002a24009020880080
:103f040010002c003020880010002000a020880021
:103f14000024ef000004a800c1208000c0ff2f008f
:103f240000806000c0208800802180007f00600045
:103f340000b0a00080218800a02180007f006000e4
:103f4400a0218800c02180007f006000c02188007b
:103f540081218000c0ff2f00008060000000a000cd
:103f640080218800a1218000c0ff2f000080600014
:103f7400a0218800c1218000c0ff2f0000806000c4
:103f8400c021880080ee2300902188003624ef00b1
:103f94003a24ef003064a9003464a9003864a9000d
:103fa40000228000ff006000007e2c0001007000f1
:103fb40000228800002280003000b3000022880024
:103fc400201f2100102288004064a90001218000e4
:103fd40000ff2f00008060000000a0000021880086
:103fe4000004a90030e4a80031e4a90032e4a900e7
:103ff40033e4a90034e4a90035e4a90036e4a900b7
:1040040037e4a90081218000c0ff2f0000806000f8
:104014008021880081218000f0cf2f000080600083
:104024008021880091218000c0ff2f000080600063
:104034009021880091218000f0cf2f000080600043
:1040440090218800a1218000c0ff2f000080600023
:10405400a0218800a1218000f0cf2f000080600003
:10406400a0218800b1218000c0ff2f0000806000e3
:10407400b0218800b1218000f0cf2f0000806000c3
:10408400b02188002024ef002224ef002824ef0030
:104094002a24ef000a24a90001208000f08f2f00b9
:1040a40000806000002088000000000001208000e3
:1040b400000e2000008060000000e000fbff3a00da
:1040c400e03122006001070020332200680107006c
:1040d4006034220070010700a03522007701070038
:1040e400c03622007f0107002468a8000c24a80021
:1040f4000ca4a8000080fa00000006000000fa00ea
:1041040020442000800078000000eb00b6fd07008a
:1041140000002100800078000000eb0093fd070000
:104124000000eb007bfd07000080fa0000000600a1
:104134000000fa00004420008000780010002000f5
:10414400a9fd070000002100800078001000200075
:1041540086fd0700100020006efd07000080fa00b5
:10416400000006000400fa00100798000000eb00ad
:10417400000f780021000700e40f50000600320011
:104184001e009000e10f5000030032001e0090005a
:10419400e40f500014003a001e0090000040780024
:1041a400674060000080fb00670060004800dd009d
:1041b40002208000f18f2f00810061000100700057
:1041c4000020880000000000002080004500de0080
:1041d400674060008080fb001e009000808f5000cc
:1041e400f9ff3a000200370010002000000f7800a9
:1041f4001e0078000080fa00000006000000fa00ab
:10420400002080004500de00674060000080fb0065
:104214000080fa00000006000c00fa004007980035
:10422400510798000000eb00000f780000432000c5
:10423400100798000040eb00604798005e00900073
:10424400200090004200de006f4060000080fb0010
:10425400e80f5000010034001e00a0000000eb0035
:1042640020079800280037001e0090009040780036
:1042740000c8b30000c060000004e0001c0032006d
:104284001e00900010407800684060000004e000c8
:1042940017003a00010021002e0090004400dd00c8
:1042a40000804000de0090007ffe07004e0090007a
:1042b40000407800e34060001e009000e3c060000e
:1042c40090417800c2cfb30002c161008140710007
:1042d400014878001e009000904078000134a0004e
:1042e4000148780010c0b300604798000900370007
:1042f4001e0090000000e800100798002e009000b7
:104304000000e800200798002e0090000000e00064
:10431400d5ff32006e4090000004a2000004e000cb
:10432400020032009e007800638f70001e00780047
:104334000080fa00000006000800fa003007980028
:104344000040eb00204798003e00900030009000b1
:104354000000e00002003a002e4090002e003700da
:1043640001218000210798002e0090000000e00049
:10437400280032000000eb00000f78002000370016
:1043840010988000ae0090000008de00610060001c
:10439400004078000004e0000e0032001098800015
:1043a40000407800be0090002afd070010988000ad
:1043b400110020000008dd000080ea008000780081
:1043c40000218000008060000021880010c0b3003c
:1043d40020479800109880000000e800109888009a
:1043e40010988000ef0f5000010036000233ef00f8
:1043f4002e4090000004e00005003a001e0fe80083
:104404001e007800ef0f5000ddff3600010037007a
:10441400000000002e4090000080fa00000006001a
:104424000000fa00502080004d00de006140600072
:104434000080fb0000f0a7000000ea000000ea0092
:104444004f00de00004078000080fa000000060003
:104454000000fa00502080004b00de006140600044
:104464000080fb0000f0a7000000ea000000ea0062
:104474004f00de00004078000080fa0000000600d3
:104484000000fa00502080004900de006140600016
:104494000080fb0000f0a7000000ea000000ea0032
:1044a4004f00de00004078000080fa0000000600a3
:1044b4000200fa000040eb00004f78000ec4bf0079
:1044c4000004e000050032000ec4bf000004e00058
:1044d4000200350010c0b300004f78001e40780081
:1044e4000080fa00000006000000fa00502080005e
:1044f4004c00de00614060000080fb0000f0a7007b
:104504000000ea000000ea004f00de0000407800ee
:104514000080fa00000006000000fa00502080002d
:104524004a00de00614060000080fb0000f0a7004c
:104534000000ea000000ea004f00de0000407800be
:104544000080fa00000006000200fa000040eb00c0
:10455400004f78000fc4bf000004e00005003200e3
:104564000fc4bf000004e0000200350010c0b30017
:10457400004f78001e4078000080fa00000006001a
:104584000600fa000000eb00000f78000121800013
:10459400210798002e0090000000e0001100320076
:1045a4000000eb00100798000b0037001e0090007d
:1045b400ae0090000008de0061006000004078005a
:1045c4000004e000010032001e0fe8001e0090000d
:1045d4000000e800100798001e009000ef0f500044
:1045e400f2ff36001e007800004078000080fa00d8
:1045f400000006000000fa000ac4a9000cc4a800c8
:1046040001208000f08f2f00008060000080a00057
:10461400002088000000000001208000000e20001f
:104624008080600000022000808f5000faff3a0072
:104634000080fa00000006000000fa0030010700c4
:104644000080fa00000006000200fa00000f780063
:104654001e007800c09788000080fa000000060061
:104664000000fa00290107000080fa00000006009b
:104674000200fa00000f78001e007800d09788002e
:104684000080fa00000006000000fa002201070082
:104694000080fa00000006000200fa00000f780013
:1046a4001e007800e09788000080fa0000000600f1
:1046b4000000fa000080fa00000006000200fa0080
:1046c400000f78001e007800f09788000080fa0040
:1046d400000006000000fa00120107000080fa0042
:1046e400000006000200fa00000f78001e007800a7
:1046f400009888000080fa00000006001400fa0008
:10470400000f9800110f980003000900001feb0030
:104714008e00b1007e0798001e0890009000900063
:104724001000780040079800510798001e08900078
:1047340040409000614060000080fb006100600028
:10474400ee0090000100a1000100700060079800d5
:104754001e08900050409000614060000080fb0003
:104764006100600000004000ee0090000110a10014
:1047740001007000600798001e08900060409000df
:104784006f4060000080fb006f0060004200dd00ad
:104794006e01900031fc2f00810061000100700067
:1047a400600798007e0090009e089000f140900001
:1047b400014878007e0090000000e8009e08900008
:1047c40081489000014878007e0090000080e80055
:1047d4009e08900091489000014878007e00900067
:1047e400630040009e089000a148900001487800b2
:1047f4007e009000640040009e089000b148900044
:10480400014878007e009000650040009e089000fa
:10481400c1489000014878007e0090006600400086
:104824009e089000d1489000014878007e009000d6
:10483400670040009e089000e1489000014878001d
:1048440068004700800078000e08900072fe0700a0
:1048540000f0a7000000ea000000ea004f00de00bc
:10486400004078000080fa00000006001400fa00fe
:10487400100f98000040eb00004f7800e100470063
:10488400070009008058eb000e00e800000f9800b4
:104894006a004700a8fe07000004e000430032005d
:1048a4005e009000ee0090001e0990000089be009a
:1048b4007e00900061406000804078001e089000f7
:1048c400414098007e009000620060000000e0001b
:1048d400040032001e08900021c0b300514098002b
:1048e400030037001e08900011c0b3005140980027
:1048f4000e089000904078001e08900071409800c7
:104904000e0890000000e800904078001e08900017
:10491400014898000e0890000080e800904078005c
:104924001e089000114898000e0890006300400093
:10493400904078001e089000214898000e089000ce
:1049440064004000904078001e08900031489800b0
:104954000e08900065004000904078001e0890000a
:10496400414898000e08900066004000904078008e
:104974001e089000514898000e08900067004000ff
:10498400904078001e089000614898007e009000d6
:104994004200de006f406000804078001e089000f6
:1049a4006140980010c0b300004f78001e407800aa
:1049b4000080fa00000006000000fa005020800089
:1049c4004d00de00614060000080fb0000f0a700a5
:1049d4000000ea000000ea004f00de00004078001a
:1049e4000080fa00000006000000fa005020800059
:1049f4004b00de00614060000080fb0000f0a70077
:104a04000000ea000000ea004f00de0000407800e9
:104a14000080fa00000006000000fa005020800028
:104a24004c00de00614060000080fb0000f0a70045
:104a34000000ea000000ea004f00de0000407800b9
:104a44000080fa00000006000600fa000000eb00f7
:104a5400000f780001218000210798002e009000ab
:104a64000000e000110032000000eb001007980085
:104a74000b0037001e009000ae0090000008de001e
:104a840061006000004078000004e0000100320092
:104a94001e0fe8001e0090000000e80010079800b8
:104aa4001e009000ef0f5000f2ff36001e00780049
:104ab400004078000080fa00000006000000fa00c0
:104ac4000ac4a9000cc4a80001208000f08f2f00a4
:104ad400008060000080a00000208800000000002a
:104ae40001208000000e2000808060000002200071
:104af400808f5000faff3a000080fa0000000600a0
:104b04000000fa000080fa00000006000000fa002d
:104b14000080fa00000006000000fa000080fa009d
:104b2400000006000000fa000080fa000000060001
:104b34000000fa000002200010138800100020007a
:104b440020138800c0002800001388000080fa00a9
:104b5400000006000400fa00000f78001107980016
:104b64000000000000138000620060000000e0000c
:104b7400fcff3a001e007800104078000080fb0023
:104b84004013880000000000011380000002200090
:104b9400008060000000e000fbff3a00401380004a
:104ba400804078001e009000014878000080fa00e0
:104bb400000006001800fa00100f9800210f98005a
:104bc400320f98000000eb00000f78000000eb00ab
:104bd400100798000000eb00700798000000eb003d
:104be400000f980010002000600798001e08900035
:104bf4000000e00005003a000000eb0050079800b8
:104c0400700047002007980004003700ee00900071
:104c1400510798009e089000210798003e089000d4
:104c24000000e00005003a000000eb004007980097
:104c34006e0047003007980005003700ee00900032
:104c440041079800be08900031079800000000005a
:104c540000138000620060000000e000fcff3a00e6
:104c64001d00370000138000620060000000e000b7
:104c740009003a002e009000104078000080fb00ec
:104c840040138800ae0090005e0090000080400059
:104c9400200798001e0fe800011380000002200086
:104ca400008060000000e0000b003a004013800028
:104cb400804078003e00900001487800be009000db
:104cc4004e00900000804000300798001e009000c5
:104cd4000000e800100798002e0890009e0078005d
:104ce400808f5000dfff390010003700011380006f
:104cf40000022000008060000000e0000b003a0089
:104d040040138000804078003e0090000148780005
:104d1400be0090004e0090000080400030079800d4
:104d24001e0090000000e800100798009e0090000c
:104d34002e089000808f5000ecff39001e00780090
:104d44000080fa00000006000400fa0020479800e2
:104d54000e80e8008e0078007eff07001e40780079
:104d64000080fa00000006000600fa00000f780038
:104d740011079800220798002e0190009e009000d1
:104d84001e0078008bff07000080fa000000060078
:104d94000000fa00001380000080fa000000060002
:104da4000000fa004000200010608800f00f20008e
:104db40020608800062cef00f00f2000506088006f
:104dc4001a2cef001e2cef00202cef00402cef00db
:104dd400602cef0000002c00e3c1200011322400fd
:104de400d2bc2a0082097800810978001061880009
:104df40000002c00e3c1200011322400d2bc2a00a0
:104e040082097800810978001062880000002c0073
:104e1400e3c1200011322400d2bc2a0082097800a8
:104e24008109780010638800800f2000e3c120000e
:104e340011322400d2bc2a0082097800810978004a
:104e440020618800800f2000e3c12000113224007b
:104e5400d2bc2a0082097800810978002062880087
:104e6400800f2000e3c1200011322400d2bc2a00ac
:104e7400820978008109780020638800f00f2000ff
:104e840030618800f00f200030628800f00f2000ad
:104e940030638800282cef00482cef00682cef00ca
:104ea4002a2cef004a2cef006a2cef002c2cef0088
:104eb4004c2cef006c2cef00322cef00522cef0046
:104ec400722cef00342cef00542cef00742cef0004
:104ed400382cef00582cef00782cef003a2cef0020
:104ee4005a2cef007a2cef003c2cef005c2cef00e6
:104ef4007c2cef003e2cef005e2cef007e2cef00ac
:104f040000002800006088000080fa00000006000d
:104f14000000fa000080fa00000006000000fa0019
:104f24003140800000202000008060000000e0008c
:104f340002003200f6ff07000728a9000080fa00eb
:104f4400000006000000fa000080fa0000000600dd
:104f54000000fa0031408000002020000080600042
:104f64000000e00002003200f6ff07000bc8a900b1
:104f74000080fa00000006000000fa000080fa0039
:104f8400000006000000fa003140800000202000ec
:104f9400008060000000e00002003200f6ff07001d
:104fa4000be8a9000080fa00000006000000fa00e7
:104fb4000080fa00000006000000fa003140800082
:104fc40000202000008060000000e00002003200a9
:104fd400f6ff07000c08a9000080fa000000060094
:104fe4000000fa00003a80000080fa000000060089
:104ff4000200fa00faff0700000f78001e00780094
:10500400240007000004e000020032000000280031
:10501400710007001e0078002a0007000004e00069
:1050240002003200000024006b0007001e0078001c
:10503400320007000004e0000200320000202000db
:10504400650007001e0078003a0007000004e00035
:1050540002003200000820005f0007001e007800f4
:10506400420007000004e0000200320000042000b7
:10507400590007001e0078004a0007000004e00001
:105084000200320000012000530007000080fa00f3
:10509400000006000400fa00100798000040eb002e
:1050a400004f78001e0090000000e00002003d0068
:1050b40010c0b300004f78001e4078000080fa0052
:1050c400000006000400fa00100798000040eb00fe
:1050d400004f78009e0090000000240000806000d3
:1050e4000000e0000200320010c0b300004f78005e
:1050f4001e4078000080fa00000006000400fa0058
:10510400100798000040eb00004f78009e009000cc
:1051140000202000008060000000e0000200320057
:1051240010c0b300004f78001e4078000080fa00e1
:10513400000006000400fa00100798000040eb008d
:10514400004f78009e00900000082000008060005e
:105154000000e0000200320010c0b300004f7800ed
:105164001e4078000080fa00000006000400fa00e7
:10517400100798000040eb00004f78009e0090005c
:1051840000042000008060000000e0000200320003
:1051940010c0b300004f78001e4078000080fa0071
:1051a400000006000400fa00100798000040eb001d
:1051b400004f78001e009000700060000000e000c6
:1051c4000200320010c0b300004f78001e40780087
:1051d4000080fa00000006000200fa00000f7800c8
:1051e4009e80ea00003a800000806000003a880057
:1051f4000080fa00000006000000fa004027ef00db
:105204000080fa00000006000200fa00000f780097
:105214001e007800cf80de0012bf29008289b90009
:10522400e002b900840178000301410013bf2900a2
:105234000300b8000101410082007800f402070075
:105244000080fa00000006000400fa00008fbe008f
:105254009e009000800220008089b9001e00780022
:10526400e000b900000141009e00780080022000a7
:105274000008b8000101410082007800e402070040
:105284000080fa00000006000400fa0010079800ed
:105294000000eb00000f78000b003700186ea80028
:1052a4002c0ea8002c2ea800800c2000d6ff07008e
:1052b400186ea9002c0ea9002c2ea900800c200029
:1052c400d1ff07001e0fe8001e0090009e0078002a
:1052d400808f5000f1ff34000080fa0000000600c7
:1052e4000800fa0010079800210798003207980078
:1052f4001e009000e10f50000f003a000000eb0088
:10530400000f780007003700186ea8002e009000e8
:10531400bdff0700186ea9002e009000baff070019
:105324001e0fe8003e0090009e007800808f500021
:10533400f5ff3400230037001e009000e20f5000f8
:105344000f003a000000eb00000f78000700370060
:105354002c0ea8002e009000abff07002c0ea90015
:105364002e009000a8ff07001e0fe8003e009000ea
:105374009e007800808f5000f5ff34001100370044
:105384001e009000e30f50000e003a000000eb00f6
:10539400000f7800070037002c2ea8002e00900084
:1053a40099ff07002c2ea9002e00900096ff0700fd
:1053b4001e0fe8003e0090009e007800808f500091
:1053c400f5ff34000080fa00000006000000fa0037
:1053d400186ea9002c0ea9002c2ea9000080fa003a
:1053e400000006000200fa00000f7800186ea80002
:1053f4001e00780084ff07002c0ea8001e00780011
:1054040081ff07002c2ea8001e0078007eff0700f5
:10541400eeff07000080fa00000006000000fa001a
:10542400042eef00182eef002c2eef00402eef007c
:10543400542eef00682eef007c2eef0010a0210008
:105444000070880070872000a0708800c0bf210011
:105454004071880000042000e071880000002f00e3
:10546400807288001000200020738800002420002f
:10547400c07388000c2eef0000012000007188002a
:10548400342eef00482eef005c2eef00702eef005c
:10549400842eef000a2eef001e2eef00322eef00b6
:1054a400462eef005a2eef006e2eef00822eef00f4
:1054b400062eef001a2eef002e2eef00422eef00e4
